:020000040800F2
:1000000080060020D500000841280008FD230008D4
:1000100000000000000000000000000000000000E0
:10002000000000000000000000000000452800085B
:1000300000000000000000004328000847280008D6
:100040000501000800000000050100080501000886
:100050000501000859040008630400086D04000845
:100060000000000005010008050100080501000866
:10007000050100080501000800000000E92800084B
:100080000000000000000000000000000000000070
:10009000D928000800000000000000000501000849
:1000A0000000000005010008000000000000000042
:1000B0000501000871250008000000000000000094
:1000C0000348854600F0C0F800480047A135000805
:1000D000800600200C4880F308880C480168090E4F
:1000E0000B4A914205D10B480B4901600B480C4962
:1000F00001600C4880470C480047FEE7FEE7FEE73A
:10010000FEE7FEE7FEE70000800600200400000096
:100110001F000000341002400100000000000140F8
:1001200000000000D5280008C100000830B50B46CB
:10013000014600202022012409E00D46D5409D42C1
:1001400005D31D469540491B254695404019154647
:10015000521E002DF1DC30BD70B50024254600286C
:1001600001DA01244042002901DA01254942FFF762
:10017000DDFFAC4200D04042002C00D0494270BDAF
:10018000F0B51FB40646002082B005464024019118
:1001900000901BE0019922460F46304600F042F8DD
:1001A000049A059B801A994110D31046194622469D
:1001B00000F028F8361A8F410197224601200021CD
:1001C000009F00F01FF838184D4100902046641E33
:1001D0000028DFDC019B00982946324607B0F0BDBD
:1001E000D2B201E00270401C491EFBD270470022CF
:1001F000F6E710B513460A4604461946FFF7F0FF26
:10020000204610BD10B5202A04DB0146203A91405B
:10021000002010BD914020239C1A0346E34019435F
:10022000904010BD10B5202A04DB0846203AD0408B
:10023000002110BD0B46D340D0402024A21A91408B
:100240000843194610BD0000064C0125064E05E086
:10025000E36807CC2B430C3C98471034B442F7D3E7
:10026000FFF732FF643D0008843D000870B5044686
:1002700000688168490720D5816810264907002950
:1002800005DA8168890702D481683143816000F012
:1002900029FE05460DE000F025FE401B0A2808D97E
:1002A000606D30436065A06D01210843A06508467C
:1002B00070BD206880684007EDD4002070BD10B587
:1002C0000146806A426D50231A420AD1416D0122D3
:1002D0005202114341650168CA681205920F05D0A8
:1002E00021E0C06C426B0846904710BD2022125C92
:1002F000002A18D10A68120715D58A685307012207
:10030000002B09DB4B680C24A3434B60416D1302A7
:1003100099431143416506E0416D2023194341652E
:10032000816D1143816500F0E3F810BD10B5806A5E
:10033000416D402211434165816D04221143816565
:1003400000F032F910BD10B5806A00F0D2F810BD8F
:10035000F8B50446006881688907890F012925D10D
:100360000168C90722D081680522114010250126A5
:1003700001290FD181680222114381602168032085
:10038000086000F0AFFD07460CE000F0ABFDC01BBD
:100390000A2807D9606D28436065A06D3043A065C9
:1003A0000120F8BD20688068C007EED10020F8BDAC
:1003B000F8B50446006881688907890F012902D1D0
:1003C0000168C90729D18168154A10261140012505
:1003D000002915D1816829438160134811490068BB
:1003E000FFF7A4FE00E0401E00900028FBD100F0C3
:1003F00079FD07460CE000F075FDC01B0A2807D9FF
:10040000606D30436065A06D2843A0650120F8BD94
:1004100020680068C043C007EDD10020F8BD00008F
:100420001700008040420F003800002030B5446CB7
:100430001C252C400125A540046C656004686360A0
:100440008368102B036803D099600068C26030BDD8
:100450009A600068C16030BD10B5022000F07CFCDD
:1004600010BD10B5042000F077FC10BD10B50120C0
:10047000800200F071FC10BD72B6FEE7F0B50246D6
:100480004032137C012B0ED00123137403689C6847
:1004900065070024002D08DA416D202319434165CA
:1004A00014740120F0BD0220F0BD0F4F4E68BD0551
:1004B000BE420E489E6A0F6809D07F037F0B3E4301
:1004C0009E62096889030CD58168294308E07F038F
:1004D0007F0BBE439E620968890302D58168A943E8
:1004E000816014740020F0BD01100000002701405D
:1004F0007047704770B5040043D0606D0221084317
:1005000060652046FFF7B2FE0026054600283AD077
:10051000012D32D0206841681F4A11404160216896
:10052000D0430860206881680122120791438160EE
:100530002068C168194A1140C16020680169184AE1
:100540001140016120684169C908C9004161206802
:10055000016A144A1140016220688030416BC90968
:10056000C901416320688030416BC909C9014163F9
:10057000204600F0FFF8A6656665403426742846DC
:1005800070BD012070BD2046FFF7E2FE0546012840
:10059000F3D001206065BDE760F7FFFF00023E83F6
:1005A00002FCFF3F00F000F07047000070B504004F
:1005B00006D0606D264600254036002802D006E0B1
:1005C000012070BDA5653574204600F0EBF8606D24
:1005D000C00603D421688868400705D5606D1021E6
:1005E000084360653574EBE7606DFF22013290438C
:1005F00002221043606588688207920F5B48012AD7
:1006000002D10A68D2072BD1032362689B079A4262
:1006100005D05B429A4202D05B009A4209D10A6936
:10062000920092080A6121680A6963681A430A61A4
:100630000CE00A69920092080A6181680F22920414
:100640009143816081686268114381602168CA6852
:1006500018239A43CA602168CA68A3681A43CA600B
:10066000816801225206914381608168A28E520600
:100670001143816020688168C90004D48168012227
:100680001207114381602068C168394A1140C16076
:100690002069E168022825D000200143204620304F
:1006A0000278037B52035B001A431143226B114310
:1006B000A26992031143E269D20311432268D3680D
:1006C0001943D160616A0A46FF3AC23A05D0A26A6C
:1006D00011432268D3681943D16042780121012A6D
:1006E00002D00BE00420D8E70078002823D0606D0A
:1006F000202210436065A06D0843A065E06B0128CF
:1007000020681FD00169C90703D001694908490061
:10071000016120684169C908C900416120684169D7
:10072000A26B11434161A565606D80088000401C8B
:100730006065002070BD2068C26801231B041A4355
:10074000C260DBE70269FF239B009A4302612068D5
:100750000269236CA66C1A43636C33431A4302612B
:10076000206802690A430261D3E7000000270140C4
:100770001902FEFF10B504460068084988420CD1F2
:100780000748416B42159143416305201021000742
:1007900000F0E2F9E06C00F01DF910BD002401400A
:1007A0000010024070B586B0064614216846FFF777
:1007B0001EFD1A49306888422ED11949486B4A15E6
:1007C00010434863C86A01221043C862C86A002502
:1007D00010400590102000900320019005206946EC
:1007E0000295000700F0C4FA0E480F4C21C42560A2
:1007F00080206560A0604000E060800020612020D3
:10080000A56160610848083C00F018F9002801D093
:10081000FFF732FEF464A66206B070BD002401400A
:100820000010024008000240C0000020F7B5044656
:10083000006817468168002549073CD426464036A3
:10084000317C01290DD001213174C2680A43C26094
:10085000E069012807D02046FFF7AAFD050002D075
:100860002AE00220FEBD606D14490840FF210131DD
:10087000084360650020A0653074E16C1048C862D0
:10088000E16C10480863E16C0F48486321681C2044
:1008900008602068416810221143416021683B468E
:1008A000E06C4031019A00F011F92068816804225F
:1008B0001143816000E002252846FEBDFEF1FFFFE6
:1008C000BF020008470300082D030008F8B50646DC
:1008D00004464036307C012807D001273774204673
:1008E000FFF7C4FC050002D028E00220F8BD206814
:1008F000C16849084900C160E06C2521095C0229F2
:1009000007D100F01FF8050003D0606D40210843B7
:10091000606520684168102291434160002D2046A7
:1009200002D0FFF715FD09E0FFF712FD050005D124
:10093000606DFF21013188433843606500203074C9
:100940002846F8BD30B5014620314A790023022AF5
:1009500004D00422C2630B71012030BD0268146808
:100960000E25AC43146002681468640864001460C7
:10097000446C1C22144001221546006CA5404560C1
:100980004A7118460B7130BD70B500240146203104
:100990004A79022A03D00421C163012418E00268C5
:1009A00013680E25AB431360026813685B085B0095
:1009B0001360436C1C221340012215469D40036CBA
:1009C0005D604A7100220A71816B002900D088475E
:1009D000204670BD70B5040029D020680168490820
:1009E000490001601348256814212818FFF79EFB71
:1009F000800060641048206400202860626C1C2124
:100A00000A4001239340226C53600B4A8032936A60
:100A1000656C0D400F21A9408B439362E062206317
:100A20006063A063E06320346071207170BD0120B9
:100A300070BD0000F8FFFDBF0000024070B504006B
:100A40003CD01F48256814212818FFF76FFB800051
:100A500060641C4820640221204620300246417117
:100A600029681948E3680140A0686669184323694A
:100A700033431843A3691843E3691843236A1843AF
:100A8000084328600121A0688903884210D00D48DE
:100A90008030836A656C1C210D400F26AE40B34345
:100AA0008362656C63680D40816AAB400B4383626F
:100AB0000020E06301215171107170BD012070BDF3
:100AC000F8FFFDBF000002400F80FFFFF8B50446AD
:100AD0008C46203001790025012909D001260671B4
:100AE00041790027012905D0077102252846F8BD64
:100AF0000220F8BD02214171E763206801684908BE
:100B00004900016061462046FFF790FC206B0028F9
:100B10002068016801D00E2205E0042291430160A3
:100B2000206801680A22114301602068016831438E
:100B30000160DBE770B5044600F0D4F90546601C9F
:100B400002D004480078241800F0CCF9401BA042E1
:100B5000FAD370BD2C000020F0B5002253E0012331
:100B600093401C460C404DD09608294DB60075198F
:100B7000AF68AC4695072E0F0F25B540AE463D40F9
:100B800005273F07B84201D100270AE0214FB842AC
:100B900001D1012705E0204FB84201D1022700E032
:100BA0000627B740AF4212D11C4D2E68A6432E60D7
:100BB0006E68A6436E60AE68A643AE60EE68A6435C
:100BC000EE606546AD687446A5436446A560056859
:100BD00056000324B44025430560D508AD002D1808
:100BE0002E6AAC465507EF0E0F25BD40AE43654655
:100BF0002E62C568A543C56045689D43456083680E
:100C0000A3438360521C0B46D340A8D1F0BD000023
:100C100000000140000400500008005000040140A2
:100C2000F8B502287ED1484C2078002809D0E08809
:100C3000464F401C80B2464D0026E080012805D07A
:100C400011E00120207002F007FF68E00221384621
:100C500000F03CF9002801D0E68060E02868466298
:100C60003B4800F09DFEE08802280FD10221384663
:100C700000F02CF9012809D1354800F0D1FE286890
:100C8000416A21824662324800F08AFEE0880328E9
:100C900045D10221384600F019F900283FD12C48EF
:100CA00000F0BEFE2868406A2A4F80B26082218A26
:100CB000814214D22089401E80B22081B84200D1E6
:100CC0002681607801281CD161892089491C8842CD
:100CD00017D3A078012814D102F0F2FD11E081426F
:100CE0000FD92089401C80B220816178012908D168
:100CF000A189491E884204DCA078012801D102F0B4
:100D0000EFFA2089E189884202D102F0A5FEE7814D
:100D10000120E080286846620D4800F041FE6078BE
:100D2000022800E00FE005D12089A18988420AD37A
:100D300002F092FE6078002805D1208961898842FE
:100D400001D802F089FEF8BD0C000020000400501C
:100D5000CC010020FFFF000010B504494A6902429F
:100D600002D04861FFF75CFF10BD000000040140A5
:100D7000FCB50023012498E027462A469F403A40CC
:100D80006FD04D68012D05D0022D03D0112D01D05B
:100D9000122D16D185680326AC465D00AE46AE40E6
:100DA0006546B543AC46CE687546AE4065462E43B3
:100DB000866046680D79BE43ED06ED0F9D403543D4
:100DC0004560C6685F000325BD40AE46AE4335466C
:100DD0008E68BE402E43C6604E68022E01D0122E91
:100DE00014D1DE08B60036180196366A5D07B4469F
:100DF000EE0E0F25B54000966646AE43B4460D692B
:100E0000009EB54066462E43019D2E6206687546DB
:100E1000AE430D79AD07AD0FBD40354305604D685C
:100E2000ED0041D5244D6E6B26436E639E08234D25
:100E3000B6007519AC46AD689E07360F0F27B74050
:100E4000BD4305273F07B84201D100270BE01C4FE7
:100E5000B84201D1012706E01A4FB84202D1022759
:100E600001E021E00627B7402F436546AF60164DED
:100E70002E684F689643FF0300D516432E606E68B8
:100E80004F689643BF0300D516436E60AE684F6847
:100E90009643FF0200D51643AE60EE684F68964356
:100EA000BF0200D51643EE605B1C0A681546DA40A7
:100EB00000D061E7FCBD00000010024000000140CE
:100EC0000004005000080050000401400069084080
:100ED00000D001207047002A01D0816170478162F3
:100EE0007047000001488068704700002C00002017
:100EF0000248816802788918816070472C000020C0
:100F000010B50848002401684022114301602046C2
:100F100000F00AF8002801D0012401E000F026F8D2
:100F2000204610BD0020024070B504460D4D7D20C6
:100F30002978C000FFF7FAF801460B480068FFF770
:100F4000F5F800F06DFC002809D1042C07D200222E
:100F50002146401E00F032F800206C6070BD012078
:100F600070BD00002C000020380000200448416BB8
:100F7000012211434163816B020411438163704775
:100F800000100240002809DBC106C90E012088407C
:100F900003490860BFF34F8FBFF36F8F70470000A6
:100FA00080E100E0002805DBC106C90E0120884071
:100FB000014908607047000000E100E010B502F050
:100FC00035F810BD024801680215114301607047F1
:100FD00000700040024801684215114301607047EB
:100FE00000700040F0B5154A1368154D54152D6A70
:100FF0002340ED07ED0F002B04D0002D02D0166822
:10100000A64316601668B608B600064316600D487B
:10101000076904263743076101290DD040BF20BF6F
:1010200020BF0169B1430161002B04D0002D02D023
:10103000106820431060F0BD30BFF2E70070004040
:101040000000014000ED00E0F8B5044600780027FC
:101050004E4D800671D54D4E403EB06BC00004D45D
:10106000B06BA9050843B063012749480168C90569
:1010700011D40168821511430160FFF733FF00901E
:1010800005E0FFF72FFF0099401A642837D8404841
:101090000068C005F5D532680321090560680A407B
:1010A0000140914208D08103890F032904D131689E
:1010B000890301D50120F8BD2A69032109040A40EA
:1010C00022D0084090421FD0207880061CD5286985
:1010D0002A6988430121C9040A432A612A698A438B
:1010E0002A612861C0050FD5FFF7FCFE009008E0DB
:1010F000FFF7F8FE0099411A2648814201D90320E2
:10110000F8BD28698005F3D561688803800F03283E
:1011100005D132680005824301400A4332602869E4
:10112000032261681204114008432861002F04D093
:10113000B16B012000078143B1632078800705D59A
:10114000E8680C218843A1680843E86020784007DC
:1011500006D5E868032189028843E1680843E8600E
:101160002078000706D5E868032109038843216930
:101170000843E8602078000606D5E8680321890462
:10118000884361690843E8600020F8BD40100240D0
:101190000070004088130000F8B50E46050038D0F6
:1011A0005E480068C007C00FB04214D25B4C206894
:1011B0004008400030432060FFF794FE074605E0FA
:1011C000FFF790FEC11B564881427AD82068C007BD
:1011D000C00FB042F4D12878524C800705D5E068A2
:1011E000F0218843A9680843E0602878C00752D0FE
:1011F0006868022806D0032807D0216801280AD091
:10120000890504E02168890301E02168890100293A
:1012100003DB0120F8BD4907F9E7E1688908890087
:101220000143E160FFF75EFE0746686802280AD0C6
:10123000032814D001281ED029E0FFF753FEC11B5C
:10124000374881423DD8E0680007800F0228F4D17A
:1012500021E0FFF747FEC11B3148814231D8E068E9
:101260000007800F0328F4D115E0FFF73BFEC11BF8
:101270002B48814225D8E0680007800F0128F4D16F
:1012800009E0FFF72FFEC11B2548814219D8E0680D
:101290000007800FF5D121480168C907C90FB14285
:1012A00017D901684908490031430160FFF71AFE68
:1012B000074608E005E0FFF715FEC11B184881420C
:1012C00001D90320F8BD15480068C007C00FB0421F
:1012D000F1D12878400706D5E06807210902884344
:1012E000E9680843E0602878000707D5E06807212F
:1012F000C90288432969C9000843E06000F03AF850
:10130000E168094A0906090F515CC84007490860AD
:1013100007480068FFF708FEF8BD00000020024003
:101320008813000000100240383D000838000020FB
:1013300030000020044805490068C968044A49058E
:10134000490F515CC840704738000020001002402F
:10135000513D0008044805490068C968044A8904E9
:10136000490F515CC840704738000020001002400F
:10137000513D000870B51A4AD3681A490C2018402C
:101380008D0004280CD04E00082810D00C2810D056
:1013900050680004410F0120C003491C884070BD03
:1013A0001068C00601D5084670BD284670BD30469D
:1013B00070BD98020C4C000F205C1B029C0FD36880
:1013C000641CDB0301D5314603E01268D20600D469
:1013D000294601F005FE22460023FEF7D1FE70BD2E
:1013E0000010024000093D00483D0008FEB5050020
:1013F0007ED0F74CE7680C20E66807400120000427
:1014000006402878C00747D0082F05D00C2F0AD1F6
:1014100001200004864206D1206880033CD568681C
:101420000028E5D038E0012069680004814203D13A
:1014300021680143216011E0052301221B0492046D
:101440009942216802D111432160F1E78143216073
:10145000216801400091206890432060686800285E
:101460000DD0FFF73FFD009005E0FFF73BFD009931
:10147000401A64287ED820688003F6D50CE0FFF778
:1014800031FD009005E0FFF72DFD0099401A64281A
:10149000F0D820688003F6D4287880075DD5E86806
:1014A000810604D5226820210A432260884309234B
:1014B000042F0DD00C2F01D1002E09D000283CD0D4
:1014C0002168994301432160FFF70CFD064628E09F
:1014D0002168490701D500288AD061681F221202BD
:1014E00091432A691202114361602168994300E027
:1014F00091E101432160FFF73DFFE16809060A0F12
:10150000B449895CC840B4490860B4480068FFF732
:101510000BFD002874D120E0FFF7E4FC801B0228BB
:10152000A8D820684007F7D560681F2109028843C2
:1015300029690902084360600FE020684008400004
:101540002060FFF7CFFC064604E0FFF7CBFC801BD2
:1015500002288FD820684007F7D42878C00661D5C4
:10156000002F0DD0A86900284BD02068FF21013141
:10157000084300E0C6E02060FFF7B4FC06462DE01B
:101580002068800502D5A8690028A5D060680721D9
:1015900049038843296A084360606068297F000224
:1015A000000A090608436060286A410B0120C00355
:1015B000491C8840E16809060A0F8649895CC840D1
:1015C0008549086085480068FFF7AEFC002817D100
:1015D00028E0FFF787FC801B0228A1D8206880053F
:1015E000F7D56068072149038843296A084360608A
:1015F0006068297F0002000A09060843606011E064
:10160000E1E02168FF20013081432160FFF76AFC9F
:10161000064604E0FFF766FC801B022872D82068AB
:101620008005F7D428786E4E000724D56869002815
:10163000306910D0012108433061FFF753FC00905E
:1016400005E0FFF74FFC0099401A02285AD830698C
:101650008007F6D50FE0400840003061FFF742FCFC
:10166000009005E0FFF73EFC0099401A022849D897
:1016700030698007F6D42878400765D500200290AD
:10168000A06BC00006D4A06B012109070843A0632A
:101690000120029053480168C90511D401688215E0
:1016A00011430160FFF71EFC009005E0FFF71AFCF4
:1016B0000099401A642825D84A480068C005F5D525
:1016C000FF20AA680130824203D1316901433161B0
:1016D00011E001218902002A07D005231B029A424A
:1016E00003D132690A433261EFE7326982433261E2
:1016F000306988433061A86800280FD0FFF7F2FBFB
:10170000009007E05EE0FFF7EDFB0099411A3648D4
:10171000814257D830698005F5D50DE0FFF7E2FB2F
:10172000009006E0FFF7DEFB0099411A2E48814247
:1017300048D830698005F5D40298002804D0A06B01
:10174000012109078843A063686A002865D00C2F2F
:101750004CD0012636060228206805D0B043206010
:10176000FFF7C0FB05462FE0B0432060FFF7BAFB50
:10177000074604E0FFF7B6FBC01B022822D820680A
:101780008001F7D4E96AA86AE2680843296BFD235F
:101790001B049A4311430843E060206830432060F3
:1017A000FFF7A0FB054604E0FFF79CFB401B022867
:1017B00008D820688001F7D52FE0FFF793FB401B86
:1017C000022801D90320FEBD20688001F5D424E061
:1017D00000100240383D0008380000203000002092
:1017E0004010024000700040881300000128EAD039
:1017F000E06801210904AA6A014091420BD10F213E
:101800008904EA6A0140914205D103218905084013
:10181000296B884201D00120FEBD0020FEBD0000E2
:10182000094910B5401E884201D9012010BD074C5E
:1018300060610321081F01F0F9FB0020A06107206F
:101840002061002010BD0000FFFFFF0000E000E06D
:10185000F0B502462032137E012B1BD001261676EE
:101860000223537605686B68AC687027BB430F682A
:101870001F436F600068B307984202D0064B98423E
:1018800004D1802349689C4321438160567600201F
:101890001076F0BD0220F0BD0008014070B50500D3
:1018A00005D02C462034607E002802D006E00120BE
:1018B00070BD00202076284600F032F802206076C5
:1018C000291D286801F018F80120A077A076E0769D
:1018D000207760776076002070BD000010B501228F
:1018E000016892070C4891420AD1816B490849006E
:1018F0008163011505200007FFF72EF90F2007E08F
:10190000064A914206D1416B04229143416314205F
:10191000FFF738FB10BD0000001002400008014036
:1019200010B586B0044614216846FEF760FC01221B
:1019300021689207184891421CD1826B01210A4309
:101940008263C26A0A43C262C06A0291084005907B
:1019500088020090022001900390052004906946BF
:101960000007FFF705FA002211460F20FFF726FBBC
:101970000F200CE0094A91420BD1416B0422114324
:101980004163002201211420FFF718FB1420FFF708
:1019900009FB06B010BD0000001002400008014025
:1019A000014620314A7E012A01D0012070470222DF
:1019B0004A76006851070122884202D006498842CF
:1019C00004D181684907490F062902D001681143F3
:1019D00001600020704700000008014001462031EE
:1019E0004A7E012A01D00120704702224A7602680D
:1019F000D36801210B43D36000688A07904202D06C
:101A0000064A904204D182685207520F062A02D039
:101A100002680A430260002070470000000801408D
:101A200001680A6A054B1A4203D10A68520852003B
:101A30000A6001212030417600207047111100001A
:101A4000F8B5054604462035287E012817D0012622
:101A50002E7602206876226890687727FF23B843A5
:101A60001B02984390600A68502A31D00EDC202A6D
:101A70004BD006DC002A48D0102A3AD145E002209B
:101A8000F8BD302A41D0402A33D136E0602A27D031
:101A9000702A12D001200003121A2AD0824228D1C3
:101AA000CB684A688968206800F057FF2068816821
:101AB00001229203114381601BE0CB684A68896868
:101AC000206800F04AFF216888683843886010E089
:101AD000CA684968206800F053FF5021206806E07A
:101AE000CA684968206800F07FFF6021206800F024
:101AF0003FFF6E7600202876F8BDCA6849682068E6
:101B000000F03EFF40212068F1E711462068EEE733
:101B100010B5006801218907884214D100F070FCDB
:101B20000C4800F007FD00280DD00A480A49183873
:101B3000806940180BD00949401805D00849C842AF
:101B400001D101F0CDFB10BD01F0BAFE10BD01F0D6
:101B500083FF10BD24000020916F00FF18E8FFFFF5
:101B600038C8FFFFF8B5064604462036307E0D46DD
:101B7000012839D001203076002A37D0042A44D0F9
:101B8000082A55D02B6820689E466F682B7B016A17
:101B9000BC460122120391430162C169026A032714
:101BA0003F02B94367463F020F430F2109038F43AA
:101BB0001907090C052339435B039A4373460A2727
:101BC0003B401B031343C16103622068C2690321C8
:101BD00089028A43C2612068C169AA68120211435E
:101BE000C16100203076F8BD0220F8BDEB6806CD5B
:101BF000083D206800F0D6FE206881690C229143E0
:101C0000816120688169AA680FE0EB6806CD083D14
:101C1000206800F0FCFE20688269032189028A4363
:101C2000826120688169AA68120211438161D8E744
:101C30002868216884462B7B6F68086AFF2201327E
:101C400090430862C8690A6A800880003843F02718
:101C5000B8431B071B0E0343052040028243604626
:101C60000A27384000021043CB6108622068C1692E
:101C70000C229143C1612068C169AA68AFE770B5C1
:101C8000050005D02C462034607E002802D006E0F6
:101C9000012070BD00202076284600F00FF80220B9
:101CA0006076291D286800F027FE0120A077A07625
:101CB000E076207760776076002070BD7047000086
:101CC00070B5044620340546002908D0042908D000
:101CD000082908D0607F012807D0012070BDA07EB0
:101CE000F9E7E07EF7E7207FF5E70220002907D03B
:101CF00004290BD008290ED060770C2911D127E0D8
:101D0000A0762A68D3680343D3600AE0E0762868A7
:101D1000C268042303E020772868C26808231A43B6
:101D2000C2600122286800F00BFE01222868920799
:101D30000121904202D0084A904204D182685207A1
:101D4000520F062A02D002680A430260002070BDCA
:101D50002868C2681023E2E70008014070B50268F5
:101D60000D00044606D0042D07D0082D22D00C2DDE
:101D700007D122E0D068022101E0D0680421884325
:101D8000D06000222946206800F0DAFD2068016A50
:101D90000E4A114203D1016849084900016001203F
:101DA0002034002D0CD0042D0CD0082D0CD06077E1
:101DB000002070BDD0680821E1E7D0681021DEE77F
:101DC000A076F5E7E076F3E72077F1E71111000060
:101DD00070B50446006801690025C94389070029D8
:101DE00015DBC168C943890711D4E91E01610120CF
:101DF0002076206880698007204602D0FFF788FEA1
:101E000004E000F078F8204600F076F825762068A7
:101E10000169C943490717D4C168C943490713D4A5
:101E20000421C94301610220207620688069800571
:101E3000800F204602D0FFF76BFE04E000F05BF855
:101E4000204600F059F8257620680169C943090742
:101E500016D4C168C943090712D40821C9430161D6
:101E6000042020762068C0698007204602D0FFF752
:101E70004FFE04E000F03FF8204600F03DF82576E4
:101E800020680169C943C90617D4C168C943C90696
:101E900013D41021C9430161082020762068C0694D
:101EA0008005800F204602D0FFF732FE04E000F0EC
:101EB00022F8204600F020F8257620680169C94301
:101EC000C90708D1C168C943C90704D1891E016186
:101ED000204600F013F820680169C943490609D477
:101EE000C168C943490605D44021C9430161204660
:101EF00000F032F870BD70477047000010B5006800
:101F0000084988420CD108484178022906D18189C4
:101F10004B22D200914201D10189818101F09CFDC7
:101F200010BD0000000801400C0000200246002007
:101F3000002908D0042909D008290AD00C2901D188
:101F40001068006C70471068406B70471068806BB9
:101F500070471068C06B70477047014660310A7D5A
:101F6000012A09D001220A750068026802239A43F7
:101F700002600020087570470220704701466031FA
:101F80000A7D012A09D001220A750068026802232D
:101F90001A4302600020087570470220704770479E
:101FA00070477047F8B502680446D06911689668B2
:101FB000814B05461D402023002D6CD0F7077F4D37
:101FC000FF0FBC460D402F4379D02546C70780350B
:101FD000002F06D0CF0504D5012717622A683A439F
:101FE0002A60820708D5F20706D0276802223A62E3
:101FF0002A6804273A432A60420708D5F20706D028
:102000002668042232622A68022632432A600207C6
:102010000AD50A461A406646324305D02668082289
:1020200032622E6816432E60020508D54A0106D595
:1020300001222668D20232622A681A432A602A687C
:10204000002A30D0800606D5880604D5616E0029A6
:1020500001D020468847286821688968490602D44B
:102060002821084225D0204600F08CFD2068816898
:10207000490619D5826840218A438260206F002872
:1020800012D04F498163206FFEF77EFC00280AD0F2
:10209000206F816B06E0850611D58D060FD5616E28
:1020A00077E020468847F8BD2046FFF77AFFF8BD65
:1020B00005E02046FFF775FF00202860F7E7256E52
:1020C000012D56D1C50654D5CD0652D5102616621F
:1020D0002068816825464906403500292ADA226FA2
:1020E000116849680904090CE1D02F8B8F42DED9B1
:1020F000698311680968890617D401683201914320
:102100000160206881684908490081602068816811
:10211000402291438160E3670020206620680168C7
:10212000B1430160206FFEF70DFC288B698B401ACC
:1021300081B21AE0298B6A8B891A6A8B89B2002ACC
:10214000B5D00029B3D00268FF252135AA4302602B
:1021500020688268520852008260E367002020668F
:10216000606620680268B24302602046FFF717FFEE
:102170009DE7C50208D5750206D50120000510624D
:102180002046FFF70DFF92E7050605D50D0603D59E
:10219000A16E002985D18AE7400688D5480686D5F4
:1021A000116820464024A1431160836700218166A5
:1021B00000F023F97BE700000F0800002001000475
:1021C000712B000810B5040003D0A06F002802D0C6
:1021D00007E0012010BD002174200155204600F0C9
:1021E00027F82420A0672068016849084900016099
:1021F000204600F057FD0128ECD0606A002802D08C
:10220000204600F01EFC206841680922D20291435A
:102210004160206881682A229143816020680168BA
:10222000012211430160204600F070FC10BD000047
:1022300010B586B0044614216846FDF7D8FF14494E
:102240002068884222D11348816B012292041143F5
:102250008163C16A01221143C162C06A0221104038
:102260000590032000900390019106200021049026
:102270000291052069460007FEF77AFD002211460B
:102280001D20FEF79BFE1D20FEF78CFE06B010BD44
:10229000004800400010024030B5C36F202B27D10A
:1022A00000290BD0002A09D0012483682403A3420B
:1022B00006D10369002B03D1CB0701D0012030BD2B
:1022C000034660331C7D012C12D001241C750023B1
:1022D0000366084C0368A34207D05C68240204D557
:1022E0001C680125AD062C431C6000F0C9FD30BD03
:1022F000022030BD0048004010B500680749884200
:102300000AD10748007801F055FC0122044905482C
:10231000FFF7C2FF01F08CFC10BD00000048004038
:102320002000002008010020FFB50446806F83B024
:1023300017460D4620285ED1002D0AD0002F08D068
:10234000A168C001814207D12069002804D1E807B3
:1023500002D0012007B0F0BD204660300090007D23
:10236000012848D0009801210175002080210851E2
:102370002120A067FEF7B6FD264640360190378241
:1023800077820120A1680003814202D120690028E0
:1023900005D02F46002500990020087511E0002780
:1023A000F9E700228021204600F0B6FD002815D173
:1023B000002F15D02168387888627F1C708A401EF3
:1023C0007082708A019B002806980090E9D1002253
:1023D0004021204600F0A0FD002808D00320B9E7E6
:1023E00028882168C005C00D8862AD1CE6E7202062
:1023F000A0670020AEE70220ACE77047FEE70000D0
:10240000F8B53D4C052720783C4D7F02002600287A
:102410000DD0286846622868016AB94301622868BD
:10242000016A01225202114301622670F8BD08219F
:102430003248FFF77BFD80B2A08029680A6ABA4360
:102440000A6229680A6A0A622D492B4B0122411847
:102450009B1D2270C82907D8627000201E54401CA2
:10246000C0B20428FAD3F8BD26494118C82902D8B9
:1024700028206070F8BD61780029FBD0202923D87E
:10248000214C0419C82C11D84C1EE617760F25468E
:102490003619F410F608F600E718AD1B0726751B71
:1024A0003C781646AE4034433C7007E00546FF3D9D
:1024B000114CCD3DC92D01D36670F8BD491C0E4CA1
:1024C000C9B26170212909D00B494B78282BF4D16E
:1024D0000E4BC018C828F0D88A70F8BD5978187803
:1024E000C943C9B28842F8D1D9789878C943C9B2EA
:1024F0008842F2D1A270F8BD020000208C010020B9
:10250000E4EEFFFFAE66FFFFFCF9FFFFB8F7FFFF49
:1025100010B5074801680A6A05235B029A430A62FC
:102520000068016A016208210148FFF7C9FB10BD7C
:102530008C01002030B50D498A78002A13D0002282
:102540000A4B8A709B1D1146032402605A5C651A6F
:10255000ED00AA400568491C2A43C9B2026004295B
:10256000F4D3012030BD002030BD00000200002067
:1025700010B50248FFF716FD10BD0000080100204D
:102580001CB5002118480091164A01910260C163F0
:1025900012054260816001230722036182630246C3
:1025A000C16020321370FF245170C23444628162D2
:1025B0001373082281615402416304634261C16163
:1025C000FDF7F4FF002801D0FDF756FF0748009003
:1025D000694601940448FDF751FF002801D0FDF73A
:1025E0004BFF1CBD002401406400002010000010BF
:1025F00008B50448016B012211430163006B1040D0
:10260000009008BD00100240F0B587B01421684664
:10261000FDF7EDFD3248C16A04252943C162C16A54
:1026200029400591C16A01242143C162C16A214048
:102630000591C16A02263143C162C06A2246304018
:102640000590052008210007FEF745FC172105200D
:10265000002249010007FEF73EFC032080030090A2
:10266000032000270190694602971E48FEF780FB71
:102670001D48019005206946009502940007FEF769
:1026800077FB082000900520019469460397029487
:102690000007FEF76DFB17204001694691C1052038
:1026A000694600070397FEF763FB104801906946EF
:1026B000009602940E48FEF75BFB002202210520E3
:1026C000FEF77CFC0520FEF76DFC0022114606207B
:1026D000FEF774FC0620FEF765FC07B0F0BD0000B5
:1026E00000100240000800500000211000003110CE
:1026F0000004005010B50C480A4901604B21C90183
:10270000416000218160C160016181610C22016230
:1027100042614162FFF756FD002801D0FDF7ACFE93
:1027200010BD0000004800400801002010B586B030
:1027300000240094174801940294039404941449CB
:102740000594016014498460416014490461C160CA
:1027500080214161FFF7A2F8002801D0FDF78CFE2F
:1027600001200003009069460A48FFF769F9002834
:1027700001D0FDF781FE049404A906480594FFF7F3
:1027800067F8002801D0FDF777FE06B010BD000005
:1027900000080140CC0100203F060000983A0000EC
:1027A00010B58AB000240494059406940794089404
:1027B000012121480994009401940294890703940B
:1027C00001600F21846041601C490461C160802167
:1027D0004161FFF763F8002801D0FDF74DFE0120AD
:1027E0000003049004A91448FFF72AF9002801D037
:1027F000FDF742FE1048FFF742FA002801D0FDF72E
:102800003BFE089408A90C480994FFF721F800281A
:1028100001D0FDF731FE02200090012001900294CA
:102820000822694603940448FFF79CF9002801D068
:10283000FDF722FE0AB010BD8C010020FFFF000052
:10284000FEE77047704710B5FEF752FB10BD000061
:1028500030B599B034216846FDF7C9FC14210DA8A4
:10286000FDF7C5FC182112A8FDF7C1FC1848016846
:102870000322D20291438214891801600220009041
:102880000024102009940125049003956846FEF762
:10289000ADFD002801D072B6FEE70F200D900F9419
:1028A000109401210E9511940DA8FEF775FC0028D7
:1028B00001D072B6FEE7042012904002159012A8D3
:1028C000FEF7C2FB002801D072B6FEE719B030BD9A
:1028D000007000407047000010B50248FFF778FA1A
:1028E00010BD0000CC01002010B50248FFF770FABF
:1028F00010BD00008C01002030B5026801239B0749
:102900000E4C984201D0A04203D17025AA434D68D5
:102910002A43984201D0A04204D103231B029A43C8
:10292000CB681A4380239A430B691A4302608A6872
:10293000C262096881620121416130BD0008014025
:1029400010B5CB06DB0E0121046A99408C4304626A
:10295000016A9A401143016210BD30B58468FF25B9
:102960002D021B021343AC430B432343836030BD52
:10297000826870239A430A4307210A4382607047A2
:1029800030B5036A046A6408640004628469F0254F
:10299000AC43120122430A24A3430B438261036226
:1029A00030BD000070B5046A640864000462846984
:1029B000056A0126B607B04202D00A4EB04202D1E3
:1029C000A408A40000E001221443F02294431A0753
:1029D000120E0A2322439D4319402943826101625A
:1029E00070BD00000008014030B5036A1024A34305
:1029F00003628469036A0F252D031203AC4322434B
:102A0000A024A343090119438261016230BD70B55E
:102A1000046A1025AC4304628569046A0326360201
:102A2000B54312022A430F252D031B071B0CAA4393
:102A30001343A022090194431140214383610162A1
:102A400070BD10B5818CC90707D001684A680123A1
:102A50005B049A43836A1A434A60818C890707D5CD
:102A600001684A6801231B049A43C36A1A434A60F7
:102A7000818C490707D501684A6801239B049A4362
:102A8000036B1A434A60818C090707D501684A68BD
:102A90000123DB039A43436B1A434A60818CC906C6
:102AA00007D50268916801231B039943836B19437F
:102AB0009160818C890607D501688A6801235B03D0
:102AC0009A43C36B1A438A60818C490612D5036806
:102AD0005A6801210905046C8A4322435A60026C3A
:102AE0008A4207D10268516803235B059943436C0E
:102AF00019435160818C090607D501684A68012392
:102B0000DB04806C9A4302434A6010BDF8B504466A
:102B1000002680300660FEF7E5F90546206800686B
:102B2000124F000709D501212B46002249052046F6
:102B3000009700F0F1F900280DD1206800684007E7
:102B40000BD501212B46002289052046009700F075
:102B5000E3F9002801D00320F8BD2020A067E0673A
:102B60002666603426750020F8BD0000FFFFFF01D7
:102B700010B5806A0022014640314A834A82FFF73D
:102B800010FA10BD01680A68FF2321339A430A60D6
:102B900001688A68520852008A60016E012904D1D6
:102BA00001680A6810239A430A602021C167002146
:102BB00001664166704770B504464030828BE36F12
:102BC0002168222B04D0886908221043886170BDD7
:102BD000496A636D11401980616D891C6165418B83
:102BE000491E4183418B0029F1D121680A68FF23E6
:102BF00021339A430A6021688A68520852008A6029
:102C00002021E16700256566216E012904D0204658
:102C1000FFF772FB256670BD21680A6810239A438E
:102C20000A60018B2046FFF7BAF9F3E770B5044656
:102C30004030828BE36F2168222B04D08869082200
:102C40001043886170BD496A1140626D1170616DF9
:102C5000491C6165418B491E4183418B0029F1D19B
:102C600021680A68FF2321339A430A6021688A6831
:102C7000520852008A602021E16700256566216EB6
:102C8000012904D02046FFF737FB256670BD216877
:102C90000A6810239A430A60018B2046FFF77FF9E8
:102CA000F3E70000F8B50446016880682369E66927
:102CB000184363690025334318436A4A0B686A4E18
:102CC000334003430B602068416803231B0399438F
:102CD000E368194341602168A069914201D0236AE9
:102CE00018438B680B263602B34303438B605F495E
:102CF00023685F488B420AD1C0680C21084027D066
:102D0000042829D0082825D00C2811D10EE09342A0
:102D10000ED1C16803208002014019D00120800239
:102D2000091A19D0091A15D0814201D1082700E0EB
:102D300010274F494F4840398600934232D1002F27
:102D40000CD0022F0DD0042F10D0082F7FD126E0F9
:102D50000027EEE70227ECE70427EAE7FEF7EAFAA6
:102D600006E00968C90605D4304603E0FEF702FB19
:102D7000002872D0626851005118814267D811034F
:102D8000814264D3010E06025008002330185941D5
:102D9000FDF7F6F903210902411A374A55E00120EF
:102DA000C003E7E70122E369D20393422BD13B0042
:102DB00000F02EF90906090C4D114D4D4D274D001F
:102DC000FEF7B8FA09E0FEF7C5FA06E00968C90699
:102DD00005D4304603E0FEF7CDFA00283DD0616807
:102DE00040004A088018FDF7A1F980B20146234A45
:102DF000103991422BD8511C01400007400F084365
:102E000029E01046EBE73B0000F002F90906090C47
:102E10002112212121232100FEF78CFA0AE0FEF77E
:102E200099FA07E00968C90606D4304604E00EE0C6
:102E3000FEF7A0FA002810D061684A081018FDF7C4
:102E400075F980B201460D4A1039914203D9012526
:102E500003E01046F0E72168C86000206066A066C5
:102E60002846F8BD00480040F369FFEF00440040E9
:102E70004010024000093D00FFFC0F00EFFF000082
:102E800070B54165014640310A834A83002242669B
:102E9000012483682403FF25A34204D10369002B86
:102EA00013D11A4B0AE07F26002B09D001252D07EC
:102EB000AB420CD10369002B05D03F238B8307E085
:102EC0000369002B01D08E8302E08D8300E08A83AA
:102ED00080210A502221C16701688B6801252B439C
:102EE0008B608168A14202D1016900290BD0084999
:102EF000416674210A5400680168FF22213211439F
:102F00000160002070BD0349F2E70000FF010000EE
:102F10002D2C0008B72B0008FFB581B005460F46E1
:102F2000044660350A9E39E0701C37D0FDF7DAFFA1
:102F30000499401AB04222D8002E20D0206801689F
:102F400049072BD5C069C043000527D4012021685B
:102F5000C002086220680168FF22A132914301602B
:102F6000206881684908490081602020A067E067E7
:102F70008034206000202875032005B0F0BD206853
:102F80000168FF22A13291430160206881684908ED
:102F9000490081602020A067E067EBE72068C169F5
:102FA0003846884305D0002103988142BCD00020D8
:102FB000E3E70121F8E700000FB410B504A9074BBF
:102FC00002AA039800F064F8044602A9002000F069
:102FD00007F9204610BC08BC04B01847E1310008CE
:102FE000F8B5040C8BB2264682B25E430D0C104637
:102FF000370C5843360480190021794116466E4338
:10300000370C36048019794126466E438919F8BD7C
:1030100030B47446641E2578641CAB4200D21D4651
:10302000635D5B00E31830BC184700008307FF2294
:10303000DB0E9A408907090E9940002808DB8308B7
:1030400009489B001B181868904308431860704794
:103050000007000F0838830804489B001B18D86934
:1030600090430843D861704700E400E000ED00E0C1
:1030700002E008C8121F08C1002AFAD17047704741
:10308000002001E001C1121F002AFBD1704700009F
:10309000FFB58DB00446002506E025280AD0109A19
:1030A0000F999047641C6D1C20780028F5D12846A4
:1030B00011B0F0BD00270121484A009700E0074306
:1030C000641C23780846203B98401042F7D12078B2
:1030D0002E2817D1042007436078641C2A280CD1BD
:1030E0000E98641C02C800910E900BE000990A2211
:1030F000514330394018641C009020780146303923
:103100000929F3D920780028D1D0642808D069286B
:1031100006D075281ED0109A0F9990476D1C5BE061
:103120000A200E99019001C90E91002802DA40424E
:103130002D2102E0390504D52B216A4611720121A7
:1031400003E0F90704D02021F7E70BAE0B910DE067
:103150000021FAE70A200E99019001C90E91F7E7C4
:103160000199FCF7E3FF3031761E31700028F7D16A
:1031700003A8801B20300190780701D5009801E05A
:10318000012000900199884201DD401A00E00020F2
:103190000027009006E002A8109AC05D0F999047A2
:1031A0006D1C7F1C0B988742F5DB04E0109A3020E1
:1031B0000F9990476D1C0099481E00900029F5DC7E
:1031C00005E03078109A761C0F9990476D1C019994
:1031D000481E01900029F4DC641C65E70928010001
:1031E0000A68531C0B6010707047000010B505246E
:1031F0002407012208212046FDF76DFE0A221C4902
:103200001C48FDF713FB0A20FDF794FC1948FDF755
:103210005DFB002208212046FDF75DFE144C0020D6
:103220004200121921885288401C8918C0B221809E
:103230000928F5D388B20A21FCF778FF0121C902D9
:103240002080884200D221802088401A642148438F
:1032500023210901FCF780FFC1B2074864290171ED
:1032600001D964210171C9B20D2000F0B9FA10BD75
:1032700050000020640000200C00002010B50D4814
:103280000178012000F08CFA0B480178022000F050
:10329000A7FA0A480178032000F0A2FA084801784A
:1032A000062000F059FA074801780D2000F098FA3E
:1032B00010BD00000D000020280000200F0000209D
:1032C0000E0000201000002001780A02417811430E
:1032D0000A028178C0781143090208437047000050
:1032E00070B5174C2078002808D1164800250580B5
:1032F0001548FEF795FB144800684562134801889D
:1033000013480088401E814218DA022011492070BB
:10331000087005252D07012220212846FDF7DBFD39
:10332000002240212846FDF7D6FD012280212846B3
:10333000FDF7D1FD2178012000F032FA70BD0000C8
:103340000D00002012000020CC01002014000020FD
:103350001800002000000020F1B586B03A49069818
:103360000E18F0780125394C0300FFF751FE0906CD
:10337000171B1F27292B196A190021780020002903
:1033800006D0012100F060FBC2B20321002012E050
:10339000002100F059FBC2B22570F6E700F0CAFA2E
:1033A00007B0F0BD00220321022004E0B079E070F4
:1033B00003210022084600F08FFCF1E76570EFE77B
:1033C000A570EDE73079070270790743002535E0F5
:1033D000069841191C480818017A407A09024018D9
:1033E00080B274190390A0790090E0790290207A5D
:1033F000617A0002081880B204900098A41D019020
:1034000000F0CCF8002107E0114A4B00D35C019A90
:10341000934203D0491CC9B28142F5D30C484900FC
:10342000081841780298814204D1211D049A00981D
:1034300000F010F803982818001D85B2BD42C7D3CC
:10344000AEE7FFF71BFFABE70C02002040000020B7
:10345000593D000870B50B4600240125014601289E
:1034600012D0022933D006280DD11846114600F09B
:10347000E1F9010019482FD00570062000F06CF921
:10348000002822D0284670BD1846114600F0D4F915
:10349000060010D0012E04D0022E0FD0032E0FD123
:1034A00002E000F0D9FA0BE00D480078002802D0C5
:1034B000022803D004E000F003FA01E0FFF710FF58
:1034C0003146012000F06CF9DAE7204670BD114664
:1034D000184600F007F870BD0470CEE70E0000201B
:1034E0000000002010B500F0A9F90E490446098833
:1034F00048436421FCF71AFE0B4980B208800B494F
:103500000988884202D9FFF7EBFE03E0884201D226
:1035100000F0D6F92146022000F062F9002800D020
:10352000012010BD180000201A0000201400002007
:1035300010B500F011FB00F0E9FA01210846FDF793
:1035400051FD0D48FEF709FD0720FDF71BFD0B4857
:10355000FEF7C4F90948FEF7E3F9FEF7D9FFFEF7D5
:103560004FFF0122052051020007FDF7B4FCFFF7D1
:103570003FF8FFF705F810BD080100208C0100207E
:10358000034610B50020024605E01C78521C2018A6
:10359000C0B292B25B1C8A42F7D310BD05207047BF
:1035A000FDF7AEFCFFF754F9FFF72EF8FFF720F810
:1035B000FEF7E6FFFFF79EF8FFF7F2F8FFF7B6F821
:1035C000FEF7A6FF5C48FEF709FA5B48FEF728FA0B
:1035D000FFF70CFE01220524550224072946204648
:1035E000FDF779FC00F00EFB012254495448FEF728
:1035F00053FE7D273F0104212046FDF767FC00288C
:1036000053D1012229462046FDF765FC3846FDF7D7
:1036100091FA04212046FDF759FC002806D100222A
:1036200029462046FDF757FC00F012F96420FDF70B
:1036300081FA00F007F9002816D001282AD00228C4
:103640002ED0042831D12BE0012229462046FDF757
:1036500042FCFA20FDF76EFA002229462046FDF7CB
:103660003AFCFA20FDF766FA00F0ECF80028EBD0FF
:103670001BE0012229462046FDF72DFC3046FDF7D0
:1036800059FA002229462046FDF725FC3046FDF771
:1036900051FA00E02B4E00F0D5F80128E9D004E003
:1036A000012229462046FDF716FC244E6421143ED3
:1036B00030894843B189FCF739FDC1B2F17003206C
:1036C00000F08EF87D26F6003046FDF733FA202113
:1036D0002046FDF7FBFB00281AD100222946204690
:1036E000FDF7F9FB08211848FEF738FB1648FEF7EE
:1036F000F5F81648FDF73EF81448FCF7FBFE1448B1
:10370000016B490849000163FFF712FFFFF76EFDE7
:1037100010480088B84200D36DE7002229462046B1
:10372000FDF7D9FB3046FDF705FA01222946204670
:10373000FDF7D1FB5FE70000CC0100202000002056
:1037400008010020DC0500008C010020640000203E
:10375000001002405000002010B5104A0C460146EF
:1037600012780020012A14D000F06EF9012100F037
:103770006BF9002100F068F9012100F065F9002CD7
:1037800009D0012100F060F902460321072000F072
:10379000A3FA002010BD0021F4E700004C00002037
:1037A00010B50E4A0C46014612780020012A12D0AC
:1037B00000F04AF9042100F047F9002100F044F933
:1037C000012100F041F9214600F03EF902460321B3
:1037D000072000F081FA002010BD00004C000020FE
:1037E00010B5134A0C46014612780020012A1DD05C
:1037F00000F02AF9022100F027F9002100F024F955
:10380000042100F021F9210E00F01EF92102090E19
:1038100000F01AF92104090E00F016F9E1B200F0E7
:1038200013F902460321072000F056FA002010BDCC
:103830004C000020007870470078704700B5FFF713
:1038400043FD00BD014800787047000043000020A0
:1038500010B504490020087002460321042000F03E
:103860003BFA10BD4100002030B5002808D00029E7
:1038700006D0884202D98C18844212D2002305E077
:10388000002030BDCD5CC5545B1C9BB29342F9D384
:1038900030BD8B18203BDC7F8318203B521EDC7729
:1038A00092B2002AF5D130BD0021002806D000E0F8
:1038B000491C0278401C002AFAD1084670470000D3
:1038C00070B5164D00242878022807D114480480CA
:1038D0001448FEF7A5F813480068446212480188AE
:1038E00012480088401C814217D911482C7004707E
:1038F00005242407012220212046FDF7ECFA0122AD
:1039000040212046FDF7E7FA002280212046FDF7FE
:10391000E2FA29780120FFF743FF70BD0D00002077
:1039200012000020CC01002014000020160000200E
:10393000000000203EB500240094019429A00294C8
:10394000FFF7B2FF82B227A1204600F06FF8C4B2A1
:1039500026A0FFF7A9FF82B224A1204600F066F856
:10396000C4B227A0FFF7A0FF82B225A1204600F035
:103970005DF8C4B224A0FFF797FF82B222A12046CF
:1039800000F054F8C4B222A0FFF78EFF82B220A14B
:10399000204600F04BF8C4B21FA0FFF785FF82B2AB
:1039A0001DA1204600F042F8C4B201221BA16846C6
:1039B000FFF702FB6846FFF777FF82B269462046B1
:1039C00000F034F8C4B218A0FFF76EFF82B216A15F
:1039D000204600F02BF8C2B20321012000F07CF950
:1039E0003EBD00007B2270223A2200003336366250
:1039F000653938396772726E6C6730780000000084
:103A0000222C2276223A2200312E302E3000000065
:103A1000222C226D223A0000320000002C226C6F12
:103A200077223A25640000007D00000070B504464E
:103A3000044815460019801DFFF716FF601980B273
:103A400070BD000042020020024A1218401C917111
:103A500080B2704742020020F8B527480026068051
:103A60002648FDF7DDFF254800684662244F022105
:103A70003846FDF72BFA0524224D2407002813D1E0
:103A8000214806702878022829D0012220212046CA
:103A9000FDF721FA012240212046FDF71CFA002201
:103AA00080212046FDF717FA02213846FDF70EFA6D
:103AB000012813D12870002240212046FDF70BFA7F
:103AC000002280212046FDF706FA00222021204610
:103AD000FDF701FA29780120FFF762FEF8BD012207
:103AE00020212046FDF7F7F9002240212046FDF76E
:103AF000F2F90122D4E7000012000020CC010020DE
:103B0000000400500D0000200C00002000B587B01C
:103B100014216846FCF76BFB0D48C26A01210A4379
:103B2000C262C06A0291084005908802009009486C
:103B30000190052069460007FDF71AF90022114699
:103B40000720FDF73BFA0720FDF72CFA07B000BD70
:103B5000001002400000211010B50A48006881687A
:103B600001229205114381600648FEF707FAFDF72E
:103B700031FAFDF727FA0448C1680122D203114344
:103B8000C16010BD080100200010024007494B68C9
:103B90008A689A4208D00648824201D31738886062
:103BA0008A681078521C8A6070470000400000202C
:103BB0004202002010B50B490B680B490A689C1A99
:103BC000012C0DD09A4202D9D31A172B08D2074BD9
:103BD0009A4202D31A46173A0A601070521C0A60C1
:103BE00010BD0000480000204400002042020020D8
:103BF00001B50223012269460148FEF795FB08BD85
:103C00000801002006490548086006490860064981
:103C1000002008700549FF20087070472B02002023
:103C200044000020480000204C00002043000020F9
:103C3000F8B50024264E274D06E0FFF7A7FF014602
:103C400028883154401C288028881F2803D200F07F
:103C500067F80028F1D12888072838D329E0315D9A
:103C6000552901D0641C07E032195178AA29F9D1ED
:103C70009178002902D0A41CA4B21AE011795379DA
:103C80000902C91D59188FB2262F0CD8B84214DB6F
:103C9000781E81B21046FFF773FCE719B919203975
:103CA000C97F884201D0E41CE6E72046FFF754FBB9
:103CB000BCB22888001B0728D1DA2888001B020420
:103CC000120C2A8003D031190148FFF7CDFDF8BD51
:103CD0000C0200203C00002070B5104D55232B70C5
:103CE000AA236B70A970E870100A28716A71D21D3E
:103CF00094B2601E81B22846FFF742FC2919203990
:103D0000C877002C09D003E02878FFF771FF6D1CFD
:103D10002046641EA4B20028F6D170BD42020020E5
:103D2000044841688068814201D00120704700202A
:103D3000704700004000002000000000000000006C
:103D40000102030406070809030406080C101820E2
:103D50003000000000010203040104020203020615
:103D6000010D0200843D000800000020500000000A
:103D700070300008D43D00085000002030060000DC
:103D80008030000802000100000000000000000078
:103D90000101010000000000000000005802FFFFC8
:103DA0000000000000000000000000000000000013
:103DB00001000000040000000000000000002000DE
:103DC00000000000000000000000000000000000F3
:043DD00000000000EF
:04000005080000C12E
:00000001FF
